:020000000E28C8
:10000800FE00030EF4000408F5000A08F6007F0855
:10001800F700C7290F288313A0308400C230DC23DF
:10002800203084004D30DC23FB01FC01FD018301FD
:100038001D2877230F30DE005E08303ED323FF00F3
:100048005E08203E84007F08831380005E083C3EE3
:100058008400203080000130DE025E0A031D202863
:10006800CC0128220030D300003016230830D300FA
:10007800013016231030D300023016231830D30075
:10008800033016232030D300043016232830D30041
:10009800053016233115051231087822A0308B005F
:1000A80083120313D0010030AA230130D10080301D
:1000B800D2006223D001D00A0030AA230F30D10029
:1000C8008030D2006223BB013B08031DAA2968289F
:1000D800051201307822413083120313D800EE3024
:1000E800D700D70B7528D80B752883120313311442
:1000F800051231087822DB01DD01BB013B08031D35
:10010800C5288228DB015D08031D93280130FF0004
:100118007F08DD075D08D0000030AA23812805127A
:1001280001307822413083120313D800EE30D70013
:10013800D70B9C28D80B9C2883120313D0010030BE
:10014800AA233C30D1000030D2006223D001D00A6B
:100158000030AA233C308B2381280F305B02031820
:1001680081283B08EA235D080319C0285B083C3E48
:1001780084003B08831380000130FF007F08DB0701
:1001880081283B08233A03198628093A0319B2291A
:10019800B128BB010F30DE005E08A03E840020308D
:1001A800831380005E08B13E840020308000013057
:1001B800DE025E0A031DD0288316B001C101283073
:1001C8008312BA000E30B600B401B40A8312DC01FF
:1001D8000230DE0001295C14F228DC14380EF039F4
:1001E8003807A03E5E07D7005708840020308000FB
:1001F8000130DE025E0A03191329380EF039380778
:10020800A03E5E07D7005708840083130008033A0E
:100218000319EF28233A0319F228F128F228DC1CE5
:100228003A297830CD00F030B923B501B50AB401C8
:10023800053083120313D9000F30D800F030D700EF
:10024800D70B2429D80B2429D90B24292B2983122D
:100258000313B401B40AB501061528303A0203188D
:100268004E290130FF007F08BA074E295C1C4E2931
:100278001E30CD003C30B9230230B60206303606B7
:10028800031D4E290E30B60015303A02031C4E29C4
:100298000130BA02D0010030AA23A030D1000030CA
:1002A800D2006223D001D00A0030AA23B130D10095
:1002B8000030D20062233808D0000030AA23003072
:1002C800EA230130EA230230EA233B080319802994
:1002D8003B08DA00BB017529B801EA28B801B80A59
:1002E800EA285A082A3A0319B2296B3A03197029DD
:1002F800033A0319722980293908031D69293A0824
:10030800B900DE015E08A13E840083130008FF00E7
:100318005E08A03E84007F0880005E08B23E84002C
:100328000008FF005E08B13E84007F0880000130AD
:10033800FF007F08DE070F305E02031C8629312389
:100348008316AF0031238316C000EA283B08413AE0
:1003580003196C28033A0319CD286728FC30FF00DD
:100368007F08B1050512310878220512013078227C
:10037800413083120313D800EE30D700D70BC229BF
:10038800D80BC22954280B1D1D2A0B1183120313E5
:100398000608F9007B080319D3290130FB02790804
:1003A800F0390319F3293B08031DF3297C080339A5
:1003B800F8007808F00079084A23FA007A0833062A
:1003C800031DE9297B08031DF3290C30FB007A087B
:1003D800BB007A08B3003C30F0007830C623013007
:1003E800FF007F08FC0703307C05F3000608FC3992
:1003F8007304860015080319082A7D080319072ABB
:100408000130FD02082A950139080319102A340819
:100418000319102A0130B902350803191D2A1108D9
:100428000139F300F30DF30D06087306FB39730663
:1004380086007708FF0076088A0075088400740E25
:100448008300FE0E7E0E09000830B100F030FF0078
:100458007F0883168505831205120330D2004130C8
:1004680083120313D100EE30D000D00B392AD10B00
:10047800392A8312031305170508F0390338850054
:10048800000000008312031305130130D202520A40
:10049800031D332A00000000831203130517050803
:1004A800F039023885000000000083120313051399
:1004B800F622051228307822051231087822051212
:1004C80001307822413083120313D100EE30D0007E
:1004D800D00B6C2AD10B6C2A063083120313B000A0
:1004E8000512300878220800CF00F030FF007F089E
:1004F80083168505831205170000831203134F081E
:10050800CE0004300310CE0CFF3E031D862A0508DA
:10051800F0394E0485000000831203130513000010
:1005280083120313051700000F30831203134F05BE
:10053800CE000508F0394E0485000000831203132D
:100548000513F6220800D0005008CF0083169C1827
:10055800AA2A83124D0883169B0001308312CE020B
:100568004E0A0319080083169C18B72A7F30FF002B
:100578007F089C051C1483124F08840083161A08F0
:10058800831380000130FF007F088312CF070130FA
:10059800FF007F0883169B07B12AFF1BDB2A831302
:1005A8007F1883170008840A0319FF0A080002301D
:1005B8008A000408840A82070034533465346C3492
:1005C8006534633474342034673461346D3465348D
:1005D800213400340034413420342F342034423460
:1005E80000340034051285170F30FF007F0883168A
:1005F80085048312051700008312031305080839C0
:10060800CD000513000083120313051700008312A1
:10061800031305130000831203134D08031DFD2A5D
:1006280085130800D5005508D40002300310D40DF6
:10063800FF3E031D1A2B0310540DE4230730D60088
:100648005308D323EA230130FF007F08D307013082
:10065800D602560A03190800242B83123208110700
:1006680001060739D3005308B20037080319402B95
:100678000130B7022030080002305302031C462B19
:100688003608B7005308413ED3230800F200F101B1
:10069800F21E502B0430572B721F542B0830572B47
:1006A800F21F582B0C30F1007008FF007F08F1048E
:1006B8007108203E84008313000808005208FF00D8
:1006C80051088400D122003A031908005208FF009B
:1006D80051088400D122EA230130D1070318D20A35
:1006E8000030D207622B83168E15073083129F00C5
:1006F8000C3083168500F030860085308100831227
:1007080095010C3097000730920006150800CD00BF
:100718004D08840083130008031908004D0884005D
:10072800203080000130FF007F08CD078C2B7E0829
:100738008A007F0882009B238000840A04087D06C3
:1007480003190034FF0A0319FE0A9F2BD200051271
:100758005008D10006300310D10DFF3E031DAF2B0A
:1007680052085107803878220800CE001508031D6A
:1007780008000630FD004E088316920083124D08CB
:1007880095000800F1001508031D08000630FD005B
:100798007108831692007008831295000800D10032
:1007A8005108CD00CE01CE0A5230A72252080800C7
:1007B80064008001840A0406031900340406DD2B52
:1007C800D00005125008403878220800D0000516DD
:0607D80050087822080021
:08400000FF3FFF3FFF3FFF3FC0
:02400E00583F19
:10420000070005000D0009001B001F001D00020033
:104210001F0015000A0015000A001F001700080003
:104220001C000A0019000D001F001F001B000400E5
:1042300000000E001B001F001500150015001F00D8
:10424000000004000A0004001F0004000A0011001E
:104250000A0015000A0015000A000400040004000A
:104260003100320033004100340035003600420096
:1042700037003800390043002A0030002300440092
:1042800000002000030004000300050003000400F8
:02429000050027
:00000001FF
