:020000000E28C8
:10000800FE00030EF4000408F5000A08F6007F0855
:10001800F700C7290F288313A0308400C230DE23DD
:10002800203084004D30DE23FB01FC01FD018301FB
:100038001D2879230F30DE005E08303ED523FF00EF
:100048005E08203E84007F08831380005E083C3EE3
:100058008400203080000130DE025E0A031D202863
:10006800CC012A220030D300003018230830D300F6
:10007800013018231030D300023018231830D30071
:10008800033018232030D300043018232830D3003D
:10009800053018233115051231087A22A0308B005B
:1000A80083120313D0010030AC230130D10080301B
:1000B800D2006423D001D00A0030AC230F30D10025
:1000C8008030D2006423BB013B08031DAA2968289D
:1000D800051201307A22413083120313D800EE3022
:1000E800D700D70B7528D80B752883120313311442
:1000F800051231087A22DB01DD01BB013B08031D33
:10010800C5288228DB015D08031D93280130FF0004
:100118007F08DD075D08D0000030AC238128051278
:1001280001307A22413083120313D800EE30D70011
:10013800D70B9C28D80B9C2883120313D0010030BE
:10014800AC233C30D1000030D2006423D001D00A67
:100158000030AC233C308D2381280F305B0203181C
:1001680081283B08EC235D080319C0285B083C3E46
:1001780084003B08831380000130FF007F08DB0701
:1001880081283B08233A03198628093A0319B2291A
:10019800B128BB010F30DE005E08A03E840020308D
:1001A800831380005E08B13E840020308000013057
:1001B800DE025E0A031DD0288316B001C101323069
:1001C8008312BA001030B600B401B40A8312DC01FD
:1001D8000230DE0001295C14F228DC14380EF039F4
:1001E8003807A03E5E07D7005708840020308000FB
:1001F8000130DE025E0A03191329380EF039380778
:10020800A03E5E07D7005708840083130008033A0E
:100218000319EF28233A0319F228F128F228DC1CE5
:100228003A297830CD00F030BB23B501B50AB401C6
:10023800053083120313D9000F30D800F030D700EF
:10024800D70B2429D80B2429D90B24292B2983122D
:100258000313B401B40AB501061532303A02031883
:100268004E290130FF007F08BA074E295C1C4E2931
:100278001E30CD003C30BB230230B60206303606B5
:10028800031D4E291030B60015303A02031C4E29C2
:100298000130BA02D0010030AC23A030D1000030C8
:1002A800D2006423D001D00A0030AC23B130D10091
:1002B8000030D20064233808D0000030AC2300306E
:1002C800EC230130EC230230EC233B08031980298E
:1002D8003B08DA00BB017529B801EA28B801B80A59
:1002E800EA285A082A3A0319B2296B3A03197029DD
:1002F800033A0319722980293908031D69293A0824
:10030800B900DE015E08A13E840083130008FF00E7
:100318005E08A03E84007F0880005E08B23E84002C
:100328000008FF005E08B13E84007F0880000130AD
:10033800FF007F08DE070F305E02031C8629332387
:100348008316AF0033238316C000EA283B08413ADE
:1003580003196C28033A0319CD286728FC30FF00DD
:100368007F08B105051231087A22051201307A2278
:10037800413083120313D800EE30D700D70BC229BF
:10038800D80BC22954280B1D1F2A0B1183120313E3
:100398000608F9007B080319D3290130FB02790804
:1003A800F0390319F3293B08031DF3297C080339A5
:1003B800F8007808F00079084C23FA007A08330628
:1003C800031DE9297B08031DF3290C30FB007A087B
:1003D800BB007A08B3003C30F0007830C823013005
:1003E800FF007F08FC0703307C05F3000608FC3992
:1003F8007304860015080319082A7D080319072ABB
:100408000130FD02082A950139080319102A340819
:100418000319102A0130B902350803191F2A0310DD
:10042800061D0314031C1C2A8312031306151F2A16
:100438008312031306117708FF0076088A007508EF
:100448008400740E8300FE0E7E0E09000830B10091
:10045800F030FF007F0883168505831205120330EC
:10046800D200413083120313D100EE30D000D00BFC
:100478003B2AD10B3B2A8312031305170508F039D1
:1004880003388500000000008312031305130130B0
:10049800D202520A031D352A0000000083120313FA
:1004A80005170508F039023885000000000083129E
:1004B80003130513F822051228307A220512310891
:1004C8007A22051201307A22413083120313D100B7
:1004D800EE30D000D00B6E2AD10B6E2A0630831274
:1004E8000313B000051230087A220800CF00F0305C
:1004F800FF007F0883168505831205170000831205
:1005080003134F08CE0004300310CE0CFF3E031D2A
:10051800882A0508F0394E04850000008312031369
:100528000513000083120313051700000F30831210
:1005380003134F05CE000508F0394E04850000006E
:10054800831203130513F8220800D0005008CF00C7
:1005580083169C18AC2A83124D0883169B00013021
:100568008312CE024E0A0319080083169C18B92A72
:100578007F30FF007F089C051C1483124F088400FD
:1005880083161A08831380000130FF007F08831246
:10059800CF070130FF007F0883169B07B32AFF1B94
:1005A800DD2A83137F1883170008840A0319FF0ABA
:1005B800080002308A000408840A82070034533491
:1005C80065346C346534633474342034673461348E
:1005D8006D346534213400340034413420342F34F0
:1005E8002034423400340034051285170F30FF00E0
:1005F8007F088316850483120517000083120313EE
:1006080005080839CD0005130000831203130517E8
:1006180000008312031305130000831203134D080F
:10062800031DFF2A85130800D5005508D4000230A1
:100638000310D40DFF3E031D1C2B0310540DE6239D
:100648000730D6005308D523EC230130FF007F087C
:10065800D3070130D602560A03190800262B831245
:10066800370803193B2B0130B70220300800010876
:10067800110632060339D3005308B2000230530280
:10068800031C482B3608B7005308413ED523080001
:10069800F200F101F21E522B0430592B721F562B17
:1006A8000830592BF21F5A2B0C30F1007008FF004C
:1006B8007F08F1047108203E8400831300080800B5
:1006C8005208FF0051088400D322003A0319080099
:1006D8005208FF0051088400D322EC230130D107CF
:1006E8000318D20A0030D207642B83168E15073000
:1006F80083129F000C3083168500F0308600853009
:100708008100831295010C3097000730920006157E
:100718000800CD004D088400831300080319080061
:100728004D088400203080000130FF007F08CD078D
:100738008E2B7E088A007F0882009D238000840A11
:1007480004087D0603190034FF0A0319FE0AA12BC9
:10075800D20005125008D10006300310D10DFF3E1B
:10076800031DB12B5208510780387A220800CE00A9
:100778001508031D08000630FD004E088316920078
:1007880083124D0895000800F1001508031D0800A4
:100798000630FD00710883169200700883129500D8
:1007A8000800D1005108CD00CE01CE0A5230A9224E
:1007B8005208080064008001840A04060319003402
:1007C8000406DF2BD0000512500840387A220800B2
:0A07D800D000051650087A22080030
:08400000FF3FFF3FFF3FFF3FC0
:02400E00583F19
:10420000070005000D0009001B001F001D00020033
:104210001F0015000A0015000A001F001700080003
:104220001C000A0019000D001F001F001B000400E5
:1042300000000E001B001F001500150015001F00D8
:10424000000004000A0004001F0004000A0011001E
:104250000A0015000A0015000A00040004001C00F2
:104260003100320033004100340035003600420096
:1042700037003800390043002A0030002300440092
:0A4280000000200003000400050008
:00000001FF
