:020000000E28C8
:10000800FE00030EF4000408F5000A08F6007F0855
:10001800F700CE290F288313A0308400C230DD23D7
:10002800203084004D30DD23FB01FC01FD018301FC
:100038001D287E230F30DE005E08383ED423FF00E3
:100048005E08203E84007F08831380005E083C3EE3
:100058008400203080000130DE025E0A031D202863
:10006800CC012F220030D30000301D230830D300EC
:1000780001301D231030D30002301D231830D30067
:1000880003301D232030D30004301D232830D30033
:1000980005301D233030D30006301D2331150512DD
:1000A80031087F22A0308B0083120313D001003067
:1000B800B1230130D1008030D2006923D001D00AA9
:1000C8000030B1230F30D1008030D2006923BB014A
:1000D8003B08031DB1296C28051201307F224130ED
:1000E80083120313D800EE30D700D70B7928D80B2A
:1000F8007928831203133114051231087F22DB019A
:10010800DD01BB013B08031DCC2886283C30922327
:10011800B929DB015D08031D9A280130FF007F081B
:10012800DD075D08D0000030B123852805120130B5
:100138007F22413083120313D800EE30D700D70B4B
:10014800A328D80BA32883120313D0010030B123AE
:100158003C30D1000030D2006923D001D00A0030F1
:10016800B1233C30922385280F305B020318852881
:100178003B08EB235D080319C7285B083C3E840055
:100188003B08831380000130FF007F08DB078528C8
:100198003B08233A03198D28093A03198A28B828F5
:1001A800BB010F30DE005E08A03E840020308313C0
:1001B80080005E08B13E8400203080000130DE02FD
:1001C8005E0A031DD7288316B001C10128308312A7
:1001D800BA000E30B600B401B40A8312DC01023052
:1001E800DE0008295C14F928DC14380EF0393807C9
:1001F800A03E5E07D70057088400203080000130F9
:10020800DE025E0A03191A29380EF0393807A03EB3
:100218005E07D7005708840083130008033A0319C0
:10022800F628233A0319F928F828F928DC1C41296B
:100238007830CD00F030C023B501B50AB4010530DF
:1002480083120313D9000F30D800F030D700D70B32
:100258002B29D80B2B29D90B2B29322983120313CD
:10026800B401B40AB501061528303A020318552915
:100278000130FF007F08BA0755295C1C55291E303C
:10028800CD003C30C0230230B60206303606031DCE
:1002980055290E30B60015303A02031C5529013095
:1002A800BA02D0010030B123A030D1000030D20012
:1002B8006923D001D00A0030B123B130D100003019
:1002C800D20069233808D0000030B1230030EB2376
:1002D8000130EB230230EB233B08031987293B0845
:1002E800DA00BB017C29B801F128B801B80AF12865
:1002F8005A082A3A0319B9296B3A03197729033A94
:100308000319792987293908031D70293A08B90082
:10031800DE015E08A13E840083130008FF005E082A
:10032800A03E84007F0880005E08B23E840000087A
:10033800FF005E08B13E84007F0880000130FF00A6
:100348007F08DE070F305E02031C8D2938238316D1
:10035800AF0038238316C000F1283B08413A03193F
:100368007028033A0319D4286B28FC30FF007F0853
:10037800B105051231087F22051201307F22413074
:1003880083120313D800EE30D700D70BC929D80B36
:10039800C92958280B1D242A0B1183120313060898
:1003A800F9007B080319DA290130FB027908F039D2
:1003B8000319FA293B08031DFA297C080339F800B8
:1003C8007808F00079085123FA007A083306031DEB
:1003D800F0297B08031DFA290C30FB007A08BB00C2
:1003E8007A08B3003C30F0007830CA230130FF00AF
:1003F8007F08FC0703307C05F3000608FC3973040A
:100408008600150803190F2A7D0803190E2A0130E2
:10041800FD020F2A950139080319172A3408031910
:10042800172A0130B90235080319242A110801399D
:10043800F300F30DF30D06087306FB397306860007
:100448007708FF0076088A0075088400740E830018
:10045800FE0E7E0E09000830B100F030FF007F0864
:1004680083168505831205120330D20041308312AA
:100478000313D100EE30D000D00B402AD10B402A14
:100488008312031305170508F039033885000000A7
:1004980000008312031305130130D202520A031D10
:1004A8003A2A000000008312031305170508F039E3
:1004B8000238850000000000831203130513FD2293
:1004C800051228307F22051231087F2205120130DB
:1004D8007F22413083120313D100EE30D000D00BBD
:1004E800732AD10B732A063083120313B000051246
:1004F80030087F220800CF00F030FF007F08831605
:100508008505831205170000831203134F08CE00D8
:1005180004300310CE0CFF3E031D8D2A0508F03968
:100528004E04850000008312031305130000831294
:100538000313051700000F30831203134F05CE0075
:100548000508F0394E0485000000831203130513D3
:10055800FD220800D0005008CF0083169C18B12A4D
:1005680083124D0883169B0001308312CE024E0A77
:100578000319080083169C18BE2A7F30FF007F08E5
:100588009C051C1483124F08840083161A088313D1
:1005980080000130FF007F088312CF070130FF0081
:1005A8007F0883169B07B82AFF1BE22A83137F184C
:1005B80083170008840A0319FF0A080002308A001A
:1005C8000408840A82070034533465346C34653473
:1005D800633474342034673461346D3465342134C1
:1005E80000340034413420342F3420344234003471
:1005F8000034051285170F30FF007F088316850425
:100608008312051700008312031305080839CD006B
:100618000513000083120313051700008312031348
:1006280005130000831203134D08031D042B8513C3
:100638000800D5005508D40002300310D40DFF3E41
:10064800031D212B0310540DE5230730D600530852
:10065800D423EB230130FF007F08D3070130D602F3
:10066800560A031908002B2B8312320811070106BA
:100678000739D3005308B20037080319472B013054
:10068800B7022030080003305302031C4D2B3608F4
:10069800B7005308493ED4230800F200F101F21EC6
:1006A800572B04305E2B721F5B2B08305E2BF21F1A
:1006B8005F2B0C30F1007008FF007F08F10471080F
:1006C800203E84008313000808005208FF005108E8
:1006D8008400D822003A031908005208FF00510884
:1006E8008400D822EB230130D1070318D20A003046
:1006F800D207692B83168E15073083129F000C30A2
:1007080083168500F03086008530810083129501BC
:100718000C3097000730920006150800CD004D08F0
:10072800840083130008031908004D088400203052
:1007380080000130FF007F08CD07932B7E088A00D8
:100748007F088200A2238000840A04087D0603191A
:100758000034FF0A0319FE0AA62BD200051250081E
:10076800D10006300310D10DFF3E031DB62B5208F1
:10077800510780387F220800CE000630FD004E0861
:100788008316920083124D0895000800F100063088
:10079800FD00710883169200700883129500080006
:1007A800D1005108CD00CE01CE0A5230AE225208F7
:1007B800080064008001840A040603190034040652
:1007C800DE2BD0000512500840387F220800D000E8
:0807D800051650087F220800FD
:08400000FF3FFF3FFF3FFF3FC0
:02400E00583F19
:10420000070005000D0009001B001F001D00020033
:104210001F0015000A0015000A001F001700080003
:104220001C000A0019000D001F001F001B000400E5
:1042300000000E001B001F001500150015001F00D8
:10424000000004000A0004001F0004000A0011001E
:104250000A0015000A0015000A000400040004000A
:1042600004000A0011001F001100170015001F00B4
:104270003100320033004100340035003600420086
:1042800037003800390043002A0030002300440082
:1042900000002000030003000400040005000500E6
:0242A000060016
:00000001FF
