:020000000E28C8
:10000800FE00030EF2000408F3000A08F4007F085B
:10001800F5002B290F281B22C3001C22C4001D2217
:10002800C5001E22C6001F22C7002022C8002122A8
:10003800C9002222CA002322CB002422CC00252278
:10004800CD002622CE002722CF002822D000292248
:10005800D1002A22D2002B22D3002C22D4002D2218
:10006800D5002E22D600D701D801D901DA01F60130
:10007800F701F8018301412A83120313C101C20168
:100088002E3084004330AA000408AB001330AC00C3
:100098002A08840083130008AD00AA0A2B088400EC
:1000A8002D088000AB0AAC0B4C289C28AD22AB284D
:1000B8004208031D602861286B28C1010130FF0038
:1000C8007F08C2074208A70000305222A728AD22A5
:1000D80083120313A701003052222E308312031318
:1000E800A6000030A700E52183120313A701A70A81
:1000F80000305222A728133041020318842885288B
:10010800A7285A30A6000030A700E5218312031360
:100118004203031D90289128972841082E3E840009
:100128005A08831380000130FF007F08C107A72801
:100138005A08003A0319A728233A03195C28093AF0
:1001480003195A287F2883120313DA019C28080010
:10015800FF1BB62883137F1883170008840A031926
:10016800FF0A080000308A000408840A8207003465
:10017800313432343334413434343534363442341F
:1001880037343834393443342A343034233444341B
:10019800563461346C346134733473347A342034B3
:1001A8006A346134743465346B346F347434213494
:1001B80000340034413420342D3420344234203487
:1001C8002D342034433420342D3420344434003446
:1001D800003483120313A500F030FF007F08831654
:1001E80003138505F030FF007F088312031385058C
:1001F8002508A30004300310A30CFF3E031DFF28AD
:1002080023080F39FF007F08850405170513F03010
:10021800FF007F08850525080F39FF007F08850442
:10022800051705130F30FF007F0883160313850495
:100238000130922183120313051705130508A40042
:1002480005170513A41929292A291E2908000B1C9A
:100258002E292F294229831203135A08031D3529F1
:1002680036294129BC2183120313DA005A080319DD
:100278003E293F294129033061220B100B1D4529D6
:10028800462955290130FF007F08F8070330780513
:10029800F100831203130608FC39710486002F222B
:1002A8000B117508FF0074088A0073088400720E29
:1002B8008300FE0E7E0E0900113083120313A60080
:1002C8008030A700E52183120313A701A70A003095
:1002D8005222233083120313A6008030A700E521A1
:1002E8007E29AD22831203135A08D600DA01912918
:1002F800DA017E29831203135A08003A03197E296A
:10030800413A03197529033A03197529013A031962
:100318007529073A031975297C29080083120313E4
:10032800A200A001A00A0230220603199C299D29D7
:10033800A32922080319A129A229A329A001200C75
:10034800031C051203180516A101A10A22030319AB
:10035800AE29AF29B629033022060319B429B529D5
:10036800B629A101210C031C851203188516080063
:1003780083120313061AC129C229C429F001DB29F3
:10038800861AC729C829CB290430F000DB29061BA7
:10039800CE29CF29D2290830F000DB29861BD529A0
:1003A800D629D929C030F000DB290030E429060815
:1003B8000339FF007F08F0047008013E8400B6206E
:1003C8000800F82902309221831203132708FF003E
:1003D80026088400AC20ED20013083120313A60701
:1003E8000318A70A0030A707831203132708FF0082
:1003F80026088400AC20003A031D032A042AE629B3
:100408000800831603138E15F0308600063081002D
:100418000F308312031397003C3095007730831612
:10042800031392000730831203139200080020344C
:100438002034203420342034203420342034203414
:100448002034203420342034203420342034203404
:100458002034203441347608031D332A342A352ABF
:10046800402A77080319392A3A2A3D2A0130F70227
:10047800402A83160313861508000522A3228B152C
:100488008B168B1760214A2A4020462A83120313B1
:100498005608413A0319482A462A0E28831203139C
:1004A800A9002708A80006300310A80DFF3E031D69
:1004B800582A2908280797220800F0007608031D03
:1004C800662A672A682A6F2AF601F60A7008F70072
:1004D800831603138611080083120313A600003045
:1004E80092218312031326082038D8005808ED20DB
:1004F800080083120313A60000309221831203130D
:1005080026080438D7005708ED2008008312031383
:10051800A600003092218312031326080838D90058
:100528005908ED20080083120313A6000030922119
:100538008312031326087F398038ED200800003025
:1005480070220830702202307D2204308A22AD22C7
:0C0558000800003092210130ED20080066
:08400000FF3FFF3FFF3FFF3FC0
:02400E00183F59
:00000001FF
