:020000000E28C8
:10000800FE00030EF9000408FA000A08FB007F0846
:10001800FC0068280F288313A0308400B030AA237E
:10002800203084004D30AA23FD0183018729BB01BC
:10003800CC012B3049233C304923A601A60AE830DD
:10004800A0000330A1002608031908002108D900E0
:100058002008D8003828260803193C280130D8027F
:100068000030031CD903D90258085904031D2F284E
:10007800DB01DB0A5B08FF3EDA005B082B3E8400ED
:1000880083130008FF005A082B3E84007F08800075
:100098005B083C3E84000008FF005A083C3E840090
:1000A8007F0880000130FF007F08DB0710305B020B
:1000B800031C3E288F23293E9823BA008F23293E0C
:1000C8009823CB00842227280B1D9E280B1183120E
:1000D80003130608CE002708031974280130A70265
:1000E8004E08F039031992282A08031D9228280877
:1000F8000339CD004D08F0004E08F222CF004F081A
:100108002906031D8A282708031D92280C30A700FA
:100118004F08AA004F08A9000630A1230130FF00AC
:100128007F08A80703302805F8000608FC3978047A
:1001380086008423D7227C08FF007B088A007A087F
:100148008400790E8300FE0E7E0E09000830A3009D
:10015800F030FF007F0883168505831205120330EF
:10016800D70057080319D128413083120313D6004A
:10017800EE30D500D50BBE28D60BBE28831203134C
:1001880005170508F03903388500000000008312C0
:10019800031305130130D702B528000000008312AD
:1001A800031305170508F039023885000000000020
:1001B800831203130513B4212830C923D623013031
:1001C800C9230630A200D3230800E901EA01E801A7
:1001D8001E29E9016A08031DFA280130FF007F087B
:1001E800EA076A08D500003068231E290130C923B0
:1001F800D501003068235830D5000030D6001F23C1
:10020800D501D50A00306823583049231E290F30FC
:10021800690203181E292A08C4236A0803191A291F
:100228006908583E84002A08831380000130FF00C3
:100238007F08E907B923233A0319ED28093A031976
:1002480026290B290800D300F030FF007F08831609
:100258008505831205170000831203135308D20083
:1002680004300310D20CFF3E031D35290508F03970
:1002780052048500000083120313051300000000D8
:1002880083120313051700000F308312031353055D
:10029800D2000508F03952048500000083120313C8
:1002A8000513B4210800F300F030FF007F0883161F
:1002B80085058312051700007308F2000430031047
:1002C800F20CFF3E031D6329831203130508F0395E
:1002D8007204850000008312031305130000000058
:1002E80083120313051700000F307305F200831201
:1002F80003130508F0397204850000008312031304
:100308000513E02108000A230F30EB006B080319DE
:100318009A296B08183E9823FF006B08A03E8400BA
:100328007F08831380000130EB028A29AA2000305D
:10033800D6000030BC220830D6000130BC22103074
:10034800D6000230BC222315D623A0308B005F22B2
:100358000130C923FC30FF007F08A305D623AB2951
:10036800103083120313D000D00BB8298312031363
:10037800051285170F30FF007F0883168504831246
:100388000517000000008312031305080839D1007F
:100398000513000000008312031305170000000076
:1003A800831203130513000000008312031351087E
:1003B800031DC329851308001030F000F00BE22953
:1003C800000083120313051285170F30FF007F0802
:1003D8008316850483120313051700000000831297
:1003E800031305080839F100051300000000831203
:1003F8000313051700000000831203130513000000
:1004080000007108031DEE298312031385130800E9
:10041800D3005308D20083169C180F2A8312500861
:1004280083169B0001308312D102510A0319080078
:1004380083169C181C2A7F30FF007F089C051C141B
:1004480083125208840083161A088313800001302F
:10045800FF007F088312D2070130FF007F08831650
:100468009B07162AFF1B402A83137F18831700084F
:10047800840A0319FF0A080002308A000408840A63
:1004880082070034563461346C3461347334733405
:100498007A3420346A346134743465346B346F349C
:1004A8007434213400340034413420342F3420345F
:1004B800423400340034D501003068230130D500BF
:1004C8008030D6001F23D501D50A003068231330A9
:1004D800D5008030D6001F237B2A0130C92323147E
:1004E800D623E92008000130C9231B200800B923BE
:1004F800413A0319712A033A0319772A7B2A08001B
:10050800D501003068232B30D5000030D6001F23DA
:10051800D501D50A003068233C30D5000030D6001C
:100528001F232508D500003068230030C42301307C
:10053800C4230230C4230800F501003076232B3091
:10054800F5000030F6003423F501F50A0030762373
:100558003C30F5000030F60034232508F500003063
:1005680076230030CE230130CE230230CE2308007C
:10057800D8005808D70002300310D70DFF3E031DDE
:10058800C02A0310570DBF230830D9005908031992
:1005980008000130D90256089823C4230130FF000F
:1005A8007F08D607CA2A83120313260803190800EE
:1005B800E52AA601F02AA501A022F02AA501A50A8C
:1005C800E02A2A08233A0319DD2A623A0319DF2AA6
:1005D800033A0319E22AF02AAA010800F200F101FD
:1005E800F21EF82A0430FF2A721FFC2A0830FF2A5C
:1005F800F21F002B0C30F1007008FF007F08F10497
:100608007108A03E840083130008080083168E1525
:10061800073083129F000C3083168500F030860067
:100628008530810077309200831295010C30970055
:100638000730920008005608FF005508840036224B
:10064800003A031908005608FF00550884003622AE
:10065800C4230130D5070318D60A0030D6071F2B4C
:100668007608FF00750884003622003A031908004E
:100678007608FF00750884003622CE230130F5077E
:100688000318F60A0030F607342BD000500884000F
:1006980083130008031908005008840020308000E4
:1006A8000130FF007F08D0074A2B7E088A007F08A8
:1006B800820059238000840A04087D060319003447
:1006C800FF0A0319FE0A5D2BD7005508D60006302D
:1006D8000310D60DFF3E031D6C2B570856078038B4
:1006E800C9230800F7007508F60006300310F60D58
:1006F800FF3E031D7A2B770876078038B22308005F
:100708001508031908007D0803198D2B0130FD0217
:100718000800950108000108110624060F39D000C9
:100728005008A40050080800D4005408D000D10193
:10073800D10A55300C2255080800F0001508031D91
:1007480008007008FD003C30950008006400800136
:10075800840A0406031900340406AB2BF400831240
:1007680003130512740857210800AA012A0803195F
:10077800BA2B2A080800D50055084038C9230800B4
:10078800D4000516540827210800D400051254087F
:1007980027210800F40005167408572108002208CC
:0A07A800C92308002308C923080034
:08400000FF3FFF3FFF3FFF3FC0
:02400E00583F19
:10420000070005000D0009001B001F001D00020033
:104210001F0015000A0015000A001F001700080003
:104220001C000A0019000D001F001F001B000400E5
:1042300031003200330041003400350036004200C6
:1042400037003800390043002A00300023004400C2
:10425000000020002000200020002000200020007E
:104260002000200020002300230024005900230008
:02427000230029
:00000001FF
