:020000000E28C8
:10000800FE00030EF4000408F5000A08F6007F0855
:10001800F700302A0F288313A0308400C230EC2365
:10002800203084004B30EC23FB01FC01FD018301EF
:100038001D2888230F30DF005F08303EE323FF00D0
:100048005F08203E84007F08831380005F083A3EE3
:100058008400203080000130DF025F0A031D202861
:10006800CA01E0210030D100003027230830D10038
:10007800013027231030D100023027231830D10057
:10008800033027232030D100043027232830D10023
:10009800053027233315051233087C22A0308B0046
:1000A80083120313CF010030BA230130D00080300F
:1000B800D1007323CF01CF0A0030BA231330D00008
:1000C8008030D1007323B9013908031DC32968287A
:1000D800051201307C22413083120313D600EE3022
:1000E800D500D50B7528D60B752883120313331446
:1000F800051233087C22DD01DE01B9013908031D30
:10010800C5288228DD015E08031D93280130FF0001
:100118007F08DE075E08CF000030BA238128051269
:1001280001307C22413083120313D600EE30D50013
:10013800D50B9C28D60B9C2883120313CF010030C3
:10014800BA233A30D0000030D1007323CF01CF0A50
:100158000030BA233A309B2381280F305D02031800
:1001680081283908FA235E080319C0285D083A3E39
:1001780084003908831380000130FF007F08DD0701
:1001880081283908233A03198628093A0319CB2903
:10019800B128B9010F30DF005F08A03E840020308D
:1001A800831380005F08B13E840020308000013056
:1001B800DF025F0A031DD0288316B001C101603039
:1001C8008312B000EA30B1001030B6001030D80009
:1001D800A430D9008312DB01DC010230DF000829DA
:1001E800DB01DB0AF928DC01DC0A380EF0393807B4
:1001F800A03E5F07D50055088400203080000130FC
:10020800DF025F0A03191A29380EF0393807A03EB1
:100218005F07D5005508840083130008033A0319C3
:10022800F428233A0319F928F728F9285C08031950
:1002380040297830CB00F030C923053083120313EE
:10024800D7000F30D600F030D500D50B2929D60BB2
:100258002929D70B29293029A43083120313310205
:1002680010300319300203185C29D030B007031886
:10027800B10A0730B1075C295B0803195C291E30F5
:10028800CB003C30C9230230B60206303606031DC7
:100298005C291030B6007D3031020130031930027C
:1002A800031C5C29D030B0020730031CB103B10233
:1002B800CF010030BA23A030D0000030D100732322
:1002C800CF01CF0A0030BA23B130D0000030D100BE
:1002D80073233808CF000030BA230030FA230130E6
:1002E800FA230230FA23390803198E293908DA006B
:1002F800B9018329B801EE28B801B80AEE285A08CE
:100308002A3A0319CB296B3A03197E29033A0319B0
:1003180080298E290130D8020030031CD903D90264
:10032800580A031D7729590A031D77293108D9006E
:100338003008D800DF015F08A13E8400831300085D
:10034800FF005F08A03E84007F0880005F08B23E7F
:1003580084000008FF005F08B13E84007F08800029
:100368000130FF007F08DF070F305F02031C9F2961
:1003780042238316AF0042238316C000EE283908B3
:10038800413A03196C28033A0319CD286728FC3031
:10039800FF007F08B305051233087C2205120130DF
:1003A8007C22413083120313D600EE30D500D50BE2
:1003B800DB29D60BDB2954280830B300F030FF00C6
:1003C8007F0883168505831205120330D10041305A
:1003D80083120313D000EE30CF00CF0BF129D00BDE
:1003E800F1298312031305170508F039033885002E
:1003F800000000008312031305130130D102510AD3
:10040800031DEB29000000008312031305170508DC
:10041800F039023885000000000083120313051329
:10042800FF22051228307C22051233087C2205128F
:1004380001307C22413083120313D000EE30CF000C
:10044800CF0B242AD00B242A063083120313B200C0
:10045800051232087C2208000B1D712A0B11831229
:1004680003130608F9007B0803193C2A0130FB0234
:100478007908F03903195C2A3908031D5C2A7C08BD
:100488000339F8007808F00079085B23FA007A0845
:100498003506031D522A7B08031D5C2A0C30FB001D
:1004A8007A08B9007A08B5003C30F0007830D623D5
:1004B8000130FF007F08FC0703307C05F3000608C5
:1004C800FC397304860015080319712A7D0803197D
:1004D800702A0130FD02712A95017708FF0076081D
:1004E8008A0075088400740E8300FE0E7E0E0900D3
:1004F800CE00F030FF007F088316850583120517AC
:100508000000831203134E08CD0004300310CD0CF5
:10051800FF3E031D8A2A0508F0394D0485000000B6
:100528008312031305130000000083120313051739
:1005380000000F30831203134E05CD000508F03973
:100548004D0485000000831203130513FF220800E1
:10055800CE004E08CD0083169C18AF2A83124B0894
:1005680083169B0001308312CC024C0A0319080041
:1005780083169C18BC2A7F30FF007F089C051C143A
:1005880083124D08840083161A08831380000130F3
:10059800FF007F088312CD070130FF007F08831614
:1005A8009B07B62AFF1BE02A83137F1883170008CE
:1005B800840A0319FF0A080002308A000408840A22
:1005C80082070034563461346C34613473347334C4
:1005D8007A3420346A346134743465346B346F345B
:1005E8007434213400340034413420342F3420341E
:1005F800423400340034103083120313CB00CB0B89
:10060800032B83120313051285170F30FF007F0891
:100618008316850483120517000083120313050847
:100628000839CC00051300008312031305170000D6
:100638008312031305130000831203134C08031DD0
:100648000E2B85130800D3005308D2000230031084
:10065800D20DFF3E031D2B2B0310520DF423073040
:10066800D4005108E323FA230130FF007F08D107A3
:100678000130D402540A03190800352B83123708B5
:1006880003194A2B0130B70220300800010811066F
:1006980034060339D1005108B40002305102031C5A
:1006A800572B3608B7005108413EE3230800F200F3
:1006B800F101F21E612B0430682B721F652B083084
:1006C800682BF21F692B0C30F1007008FF007F08BF
:1006D800F1047108203E84008313000808005108C3
:1006E800FF0050088400D622003A03190800510878
:1006F800FF0050088400D622FA230130D0070318DF
:10070800D10A0030D107732B83168E150730831258
:100718009F000C3083168500F030860085308100FC
:10072800831295010C309700073092000800CB0027
:100738004B08840083130008031908004B08840041
:10074800203080000130FF007F08CB079C2B7E08FB
:100758008A007F088200AB238000840A04087D0693
:1007680003190034FF0A0319FE0AAF2BD100051242
:100778004F08D00006300310D00DFF3E031DBF2BDD
:100788005108500780387C220800CC001508031D4A
:1007980008000630FD004C088316920083124B08AF
:1007A80095000800F1001508031D08000630FD003B
:1007B8007108831692007008831295000800CF0014
:1007C8004F08CB00CC01CC0A5030AC2250080800AE
:1007D80064008001840A0406031900340406ED2B22
:1007E800CF0005124F0840387C220800CF000516BC
:0607F8004F087C220800FE
:08400000FF3FFF3FFF3FFF3FC0
:02400E00583F19
:10420000070005000D0009001B001F001D00020033
:104210001F0015000A0015000A001F001700080003
:104220001C000A0019000D001F001F001B000400E5
:1042300000000E001B001F001500150015001F00D8
:1042400004000A000A0004001F0004000A00110014
:104250000E0015000A0015000A0004000400040006
:104260003100320033004100340035003600420096
:1042700037003800390043002A0030002300440092
:0A4280000000200003000400050008
:00000001FF
